:020000040800F2
:1020000000400020E13500086F3200082D3600083E
:102010007D320008853200088D3200080000000083
:1020200000000000000000000000000095320008E1
:10203000A332000800000000B13200082D3600086D
:102040002D3600082D3600082D3600082D360008E4
:102050002D3600082D3600082D3600082D360008D4
:102060002D3600082D3600082D3600082D360008C4
:102070002D3600082D3600082D3600082D360008B4
:102080002D3600082D3600082D3600082D360008A4
:102090002D3600082D3600082D3600082D36000894
:1020A0002D3600082D3600082D3600082D36000884
:1020B0002D3600082D3600082D3600082D36000874
:1020C0002D3600082D3600082D3600082D36000864
:1020D0002D3600082D3600082D3600087D27000813
:1020E0002D3600082D3600082D3600082D36000844
:1020F0002D3600082D3600082D360008000000009F
:102100002D360008000000002D3600082D3600088E
:102110002D3600082D3600082D3600082D36000813
:102120002D3600082D3600082D3600082D36000803
:102130002D3600082D3600082D3600082D360008F3
:102140002D3600082D3600082D3600082D360008E3
:10215000032A30B415D941EA0004A40784460B468B
:1021600004D0541E0FE0043A032A08D919466046E9
:1021700053F8044B5CF8045BA542F4D0F1E76046E9
:102180001946541E7AB1431E0139021901E09A42E0
:1021900009D013F8010F11F801CF6045F7D0A0EB7B
:1021A0000C0030BC7047002030BC704710B5054CA7
:1021B000237833B9044B13B10448AFF300800123F3
:1021C000237010BD1400002000000000243A000815
:1021D00008B5034B1BB103490348AFF3008008BDAA
:1021E0000000000018000020243A000880B500AF6D
:1021F00000F026F900F0B4F8002202214B4800F06C
:102200007CFB4B4B00221A802DE0494B1B8801338D
:102210009AB2474B1A80464B1B88102B23D91122A8
:1022200044494548FFF794FF0346002B0FD0112285
:1022300042494148FFF78CFF0346002B07D011228B
:102240003F493D48FFF784FF0346002B0BD13D4B30
:102250001B68002B02D13B4B01221A6011223A4924
:102260003A4801F089FB324B1B881A46324B134423
:102270001946364801F0DBF90346002BC5D02C4B3C
:1022800000221A802F4B1B68002B10D02D4B1B688F
:1022900001332C4A13602B4B1B68B3F57A7F06D3AE
:1022A00000F0DCF82C231B68984700BFFDE7284BA3
:1022B0001B885A1C91B2264A1180B3F5FA7F11D9B6
:1022C0001021244800F034FB0346002B0CBF0123EF
:1022D0000023DBB21A4610211E4800F00EFB1C4BF7
:1022E00000221A801C4B93F90030002B17DD1A4B8B
:1022F00093F90030DBB2013BDBB25AB2164B1A70D5
:10230000154B93F90030002B09D1144B1B689BB27D
:1023100019460E4801F02AFA104B00221A600B48A9
:1023200001F07EFA012000F059F96AE7000C014043
:1023300048040020543A000830000020683A0008A1
:102340007C3A00084C040020903A00085408002011
:102350005004002000100140980800208808002048
:1023600080B582B002AF064B00934FF480734FF4F8
:1023700080720449044801F088F900BFBD4680BD61
:1023800000000020540400205408002080B582B0D2
:1023900000AF78603960084A7B681360074A3B6881
:1023A000136040F20731064800F0D1FE00231846C2
:1023B0000837BD4680BD00BF8C080020940800206F
:1023C0000048004080B483B000AF78603960064AAE
:1023D0007B681360054B00221A60002318460C37F7
:1023E000BD465DF8047B7047840800208808002003
:1023F00080B400AF054B1B68002B01D0012300E027
:1024000000231846BD465DF8047B70479408002001
:1024100080B500AF01220221024800F06EFA00BF31
:1024200080BD00BF000C014080B500AF002202213A
:10243000024800F062FA00BF80BD00BF000C0140FE
:1024400080B500AF00F00AF800F0AAF800F046F8F6
:1024500000F072F862B600BF00BF80BD80B584B0E6
:1024600000AF0023FB600123BB60BB6883F31088CF
:1024700000BF184B00221A60164B00225A60154B01
:1024800000229A600023FB6010E0134AFB682033AF
:102490004FF0FF3142F823100F4AFB6860334FF0D2
:1024A000FF3142F82310FB680133FB60FB68072B08
:1024B000EBD94FF400514FF0006000F0EBFA00232D
:1024C0007B607B6883F3108800BF00BF1037BD4678
:1024D00080BD00BF10E000E000E100E080B500AF8B
:1024E00040F2026000F00CFB40F2036000F008FBD9
:1024F00040F2046000F004FB4FF4806303221821D3
:102500000B4800F045F94FF400630322042108480A
:1025100000F03EF9022303221021054800F038F9AB
:10252000102303221021034800F032F900BF80BDC0
:10253000000C01400010014080B500AF40F2127065
:1025400000F0DEFA154800F06DFC4FF41651134808
:1025500000F0CAFC0021114800F052FD00210F4894
:1025600000F06AFD00210D4800F02EFD04210B480B
:1025700000F0ADFD0821094800F08CFD40F2053166
:10258000064800F0E4FD054800F072FD002200213D
:10259000272000F0F7F900BF80BD00BF00480040D1
:1025A00080B500AF6FF0040000F08EFA074B084AC8
:1025B0001A60064BD3ED007A9FED067A67EE877AB4
:1025C000054BC3ED007A00BF80BD00BF7C08002032
:1025D0000000204100007A448008002080B485B0CB
:1025E00000AF78607B6807EE903AB8EE677A164BDA
:1025F000D3ED007A67EE277A144BFCEEE77A17EEFC
:10260000902A5A60114B00229A60104B01221A60E6
:102610000E4B1B68FB60FB6803F00103002B04D02A
:10262000FB6803F48033002BF2D0084B1B68074A89
:1026300023F001031360054B00229A6000BF14379A
:10264000BD465DF8047B70478008002010E000E084
:1026500080B584B000AF78603C49786800F0BAFD7E
:102660000346002B0ED03A4B1B689BB219463948E3
:1026700001F07CF8364B00221A603449786800F08B
:10268000DEFD5EE03449786800F0A4FD0346002BCF
:1026900012D0786800F04AFD0346FB732F4B1A688E
:1026A0002B4B1B68591C2A4801601344FA7B1A7093
:1026B0002B4B05221A7044E02A49786800F08AFD05
:1026C0000346002B23D0284B1A68284B1B68591C43
:1026D0002648016013441B781946786800F014FD01
:1026E000224B1A68224B1B689A422AD340F20731C8
:1026F000786800F04DFD1D4B00221A601C4B002233
:102700001A6040F20631786800F021FD19E019499D
:10271000786800F05FFD0346002B07D00D4801F0FC
:102720006DF81449786800F08AFD0AE0124978686B
:1027300000F050FD0346002B03D00F49786800F0ED
:102740007EFD00BF1037BD4680BD00BF04030400FE
:102750008808002054080020050305008408002094
:1027600098080020070307008C080020900800202C
:1027700094080020060306000503030080B500AF9F
:102780000248FFF765FF00BF80BD00BF0048004062
:1027900080B489B000AFF860B9607A603B60002314
:1027A000BB6100237B61BB6803F00F03BB61BB68A7
:1027B00003F01003002B14D07B68042B0DD1BB69F0
:1027C00043F00303BB61FB683C331A68FB683C338E
:1027D00019463B6813430B6003E0BA697B681343F7
:1027E000BB610023FB8339E0FB8B01229A403B68ED
:1027F0001340002B2FD0FB681B687B61FB8B9B0079
:102800000F2202FA03F3DB437A6913407B61FB8BEF
:102810009B00BA6902FA03F37A6913437B61BB68D0
:10282000282B09D1FB8B01229A40FB6814331946EF
:102830003B6813400B600BE0BB68482B08D1FB8B57
:1028400001229A40FB68103319463B6813400B6025
:10285000FB687A691A60FB8B0133FB83FB8B072BC8
:10286000C2D90823FB833EE0FB8B01229A403B68E0
:102870001340002B34D0FB6804331B687B61FB8B57
:10288000083B9B000F2202FA03F3DB437A691340F3
:102890007B61FB8B083B9B00BA6902FA03F37A6900
:1028A00013437B61BB68282B09D1FB8B01229A4023
:1028B000FB68143319463B6813400B600BE0BB68A0
:1028C000482B08D1FB8B01229A40FB681033194634
:1028D0003B6813400B60FB6804331A467B69136046
:1028E000FB8B0133FB83FB8B0F2BBDD900BF00BFDC
:1028F0002437BD465DF8047B704780B485B000AFD7
:10290000F860B9601346FB71FB79002B05D0FB68BA
:1029100010331A46BB68136004E0FB6814331A4690
:10292000BB68136000BF1437BD465DF8047B704779
:1029300080B483B000AF786039607B6808331A6870
:102940003B681340002B01D0012300E00023184610
:102950000C37BD465DF8047B7047000080B483B03F
:1029600000AF7860064A7B6843F0BF6343F40033EE
:10297000D36000BF0C37BD465DF8047B704700BFD5
:1029800000ED00E080B586B000AF0346FB710B465A
:10299000BB7113467B710023FB6000237B61002326
:1029A0003B613A4BDB6803F4E063B3F5E06F04D1BD
:1029B00000237B6104233B6137E0344BDB6803F485
:1029C000E063B3F5C06F04D101237B6103233B6156
:1029D0002BE02E4BDB6803F4E063B3F5A06F04D16A
:1029E00002237B6102233B611FE0284BDB6803F479
:1029F000E063B3F5806F04D103237B6101233B6166
:102A000013E0224BDB6803F4E063B3F5407F04D1AD
:102A100004237B6100233B6107E04FF4A060FFF7D4
:102A20009DFF02237B6102233B61BA797B69C3F17D
:102A3000040302FA03F3FB607A793B69C3F10403F0
:102A40000F2121FA03F31340FA681343FB60FB687C
:102A50001B01FB600E4A97F90730F968C9B21344AD
:102A60000A4683F80023FB7903F01F03084997F90E
:102A70000720521152B21046012202FA03F341F824
:102A8000203000BF1837BD4680BD00BF00ED00E01C
:102A900000E100E080B483B000AF786039603B684B
:102AA00023F0604323F07F0306497A6813438B6069
:102AB000BFF34F8F00BF00BF0C37BD465DF8047BEE
:102AC000704700BF00ED00E080B483B000AF7860D5
:102AD0007B68042B06D1094B1B68084A43F00403AA
:102AE000136005E0054B1B68044A23F004031360E0
:102AF00000BF0C37BD465DF8047B704710E000E076
:102B000080B483B000AF0346FB80FB889B099BB277
:102B100003F1804303F504331968FB8803F01F03B6
:102B200001229A40FB889B099BB203F1804303F585
:102B30000433184641EA0203036000BF0C37BD4668
:102B40005DF8047B704780B483B000AF0346FB8020
:102B5000FB889B099BB203F1804303F5043319689A
:102B6000FB8803F01F0301229A40FB889B099BB25C
:102B700003F1804303F50433184641EA020303607E
:102B800000BF0C37BD465DF8047B704780B483B04E
:102B900000AF0346FB80FB889B099BB203F1804397
:102BA00003F504331968FB8803F01F03012202FABE
:102BB00003F3DA43FB889B099BB203F1804303F5DF
:102BC0000433184601EA0203036000BF0C37BD4618
:102BD0005DF8047B7047000090B49AB000AF0346E4
:102BE000FB7100237B66874B07F118040FCB84E849
:102BF0000F00854A07F1100392E8030083E8030001
:102C0000814A07F1080392E8030083E803007F4B41
:102C10001B689B0803F003033B653B6D022B10D040
:102C20003B6D022B00F295803B6D002B03D03B6D7A
:102C3000012B03D08DE0764B3B668EE0754B3B66F7
:102C40008BE0724B1B6803F48033FB64FB6CB3F5C1
:102C5000803F3CD1704B1B6803F08043BB64BB6C6E
:102C6000002B02D16B4BBB6501E06C4BBB656A4B23
:102C70001B6803F480337B647B6CB3F5803F1AD10F
:102C8000654B1B681B0903F00F0301333B64624B68
:102C90001B681B0A03F00F0302337B657B6D112B4E
:102CA00001D114237B65BA6D3B6CB2FBF3F27B6DF3
:102CB00002FB03F3BB65584B1B6803F00F030133A2
:102CC000FB63BA6DFB6BB2FBF3F3BB6501E0544BE6
:102CD000BB654E4B1B689B0C03F00F03FB654B4B16
:102CE0001B6803F00053002B03D0FB6D43F010036F
:102CF000FB65464B1B6803F08043002B03D0FB6D44
:102D000043F02003FB65FB6D0E2B03D8FB6D0233F4
:102D1000FB650BE0FB6D0E2B06D9FB6D3E2B03D83C
:102D2000FB6D0133FB6501E03F23FB65BB6DFA6D75
:102D300002FB03F33B66FB6D0F2B0DD1BA6D1346FF
:102D40005B0013445B001A46BB6D5B0813443B6693
:102D500002E02F4B3B6600E000BF2C4B1B681B09B9
:102D600003F00F03BB6307F11802BB6B13441B781E
:102D70007B633A6E7B6B22FA03F33B63234B1B6846
:102D80001B0A03F00703BB6307F11002BB6B13447C
:102D90001B787B633A6B7B6B22FA03F3FB621B4B62
:102DA0001B68DB0A03F00703BB6307F10802BB6B78
:102DB00013441B787B633A6B7B6B22FA03F3BB6291
:102DC000FB79032B16D801A252F823F0DD2D000861
:102DD000E32D0008E92D0008EF2D00083B6E7B660F
:102DE00009E03B6B7B6606E0FB6A7B6603E0BB6A3F
:102DF0007B6600E000BF7B6E18466837BD4690BC1E
:102E0000704700BF3C3A00084C3A000804100240EA
:102E100000127A00001BB7002C100240006CDC028C
:102E200000093D0080B582B000AF78607B68294A18
:102E300093421CD07B68274A934245D87B68264A38
:102E4000934238D07B68244A93423DD87B68234A1A
:102E5000934227D07B68214A934235D87B68204A29
:102E600093420DD07B681F4A934212D02CE040F26F
:102E70000E30FFF768FE40F20E30FFF787FE24E0C9
:102E800040F21140FFF75FFE40F21140FFF77EFE77
:102E90001BE040F21240FFF756FE40F21240FFF7EF
:102EA00075FE12E040F21340FFF74DFE40F2134072
:102EB000FFF76CFE09E040F21440FFF744FE40F2D9
:102EC0001440FFF763FE00E000BF00BF0837BD46B7
:102ED00080BD00BF0038014000500040004C004061
:102EE000004400400048004080B586B000AF7860E4
:102EF000396000237B6100233B610023FB600023DA
:102F0000BB607B682B4A93421CD07B68294A934262
:102F100031D87B68284A934228D07B68264A93425E
:102F200029D87B68254A93421BD07B68234A934269
:102F300021D87B68224A934209D07B68214A934278
:102F40000AD018E00320FFF747FE786114E0022062
:102F5000FFF742FE78610FE00220FFF73DFE786147
:102F60000AE00220FFF738FE786105E00220FFF753
:102F700033FE786100E000BF3B685A087B691A4461
:102F80003B68B2FBF3F3BB60BA684FF6F0731340D3
:102F90003B61BB6803F00F03FB603A69FB6842EAE0
:102FA00003017B6808331A468BB2136000BF1837E1
:102FB000BD4680BD0038014000500040004C00403C
:102FC000004400400048004080B483B000AF786007
:102FD00039607B680C331B687A680C3223F4C06359
:102FE00013607B680C331A687B680C3319463B68A6
:102FF00013430B6000BF0C37BD465DF8047B704780
:1030000080B483B000AF786039607B680C331B6894
:103010007A680C3223F4805313607B680C331A688F
:103020007B680C3319463B6813430B6000BF0C37B9
:10303000BD465DF8047B704780B483B000AF786014
:1030400039607B6810331B687A68103223F4405370
:1030500013607B6810331A687B68103319463B682D
:1030600013430B6000BF0C37BD465DF8047B70470F
:1030700080B483B000AF78607B680C331B687A68DB
:103080000C3243F40053136000BF0C37BD465DF8AB
:10309000047B704780B483B000AF786039607B6890
:1030A0000C331B687A680C3223F0080313607B68CA
:1030B0000C331A683B6803F0080379680C3113433A
:1030C0000B6000BF0C37BD465DF8047B704780B4D1
:1030D00083B000AF786039607B680C331B687A6816
:1030E0000C3223F0040313607B680C331A683B68CE
:1030F00003F0040379680C3113430B6000BF0C37F5
:10310000BD465DF8047B704780B483B000AF786043
:103110000B467B807B887A680432C3F30803136014
:1031200000BF0C37BD465DF8047B704780B483B0A8
:1031300000AF78607B6804331B689BB2C3F308035D
:103140009BB218460C37BD465DF8047B704780B4CF
:1031500083B000AF78600B467B807B889B099BB275
:103160001A467B6813441A687B8803F01F03012109
:1031700001FA03F37988890989B20846796801441C
:1031800013430B6000BF0C37BD465DF8047B7047EE
:1031900080B483B000AF78600B467B807B889B094E
:1031A0009BB21A467B6813441A687B8803F01F039E
:1031B000012101FA03F3DB437988890989B20846C2
:1031C0007968014413400B6000BF0C37BD465DF8C1
:1031D000047B704780B485B000AF7860396000230D
:1031E000FB600023BB603B689B09C3F309027B685B
:1031F00013441A683B6803F01F03012101FA03F32B
:103200001340FB603B689A0D7B6813441A683B6867
:103210001B0C03F01F03012101FA03F31340BB60F1
:10322000BB68002B04D0FB68002B01D0012300E019
:10323000002318461437BD465DF8047B704780B400
:1032400083B000AF786039603B681B0C03F01F034C
:10325000012202FA03F33A68910D7A680A44DB43CB
:10326000136000BF0C37BD465DF8047B704780B427
:1032700000AF00BFBD465DF8047B704780B400AF6F
:1032800000BFFDE780B400AF00BFFDE780B400AF32
:1032900000BFFDE780B400AF00BFBD465DF8047B12
:1032A000704780B400AF00BFBD465DF8047B704737
:1032B00080B400AF00BFBD465DF8047B704780B4AA
:1032C00085B000AF78600023FB6002E0FB6801334B
:1032D000FB607A6813469B0013445B001A46FB6848
:1032E0009A42F3D800BF00BF1437BD465DF8047B97
:1032F0007047000080B582B000AF534BD3F88830E0
:10330000514A43F47003C2F88830504B1B684F4A4F
:1033100043F00103136000BF4C4B1B6803F0020332
:10332000002BF9D04A4B1B6803F00C03082B64D127
:1033300000237B6002E07B6801337B607B684F2B5E
:10334000F9D9434B1B683B603B6823F0F0033B60BB
:103350003B6843F080033B603D4A3B6813600023B9
:103360007B6002E07B6801337B607B684F2BF9D97F
:10337000374B1B683B603B6823F0F0033B603B68C6
:1033800043F090033B60324A3B68136000237B604C
:1033900002E07B6801337B607B684F2BF9D92C4BB3
:1033A0001B683B603B6823F0F0033B603B6843F0E5
:1033B000A0033B60264A3B68136000237B6002E069
:1033C0007B6801337B607B684F2BF9D9204B1B68EE
:1033D0003B603B6823F0F0033B603B6843F0B00385
:1033E0003B601B4A3B68136000237B6002E07B6804
:1033F00001337B607B684F2BF9D9154B1B68144A4E
:1034000023F003031360C820FFF759FF0F4B1B681D
:103410000E4A23F0A85323F4102313600D4B4FF4EE
:103420007F021A60094B1B68084A23F4802313604B
:10343000074B00221A60084B00221A6000F00EF8B9
:1034400000BF0837BD4680BD00ED00E0001002401F
:1034500004100240081002402C10024080B500AF5A
:1034600000F002F800BF80BD80B485B000AF00233B
:10347000FB600023BB60534B1B68524A43F480330C
:103480001360FB680133FB604E4B1B6803F4003391
:10349000BB60BB68002B04D1FB684FF6FF72934200
:1034A000EFD1484B1B6803F40033002B01D100BF60
:1034B000FDE7454B1B68444A43F080531360434B80
:1034C0001B68424A43F440431360414B404A1B6827
:1034D00013603F4B3E4A1B6813603D4B1B683C4AE0
:1034E00043F4806313603A4B1B68394A23F0C043AE
:1034F00023F470131360364B1B68354A43F00053B6
:1035000043F454131360334B1A683249324B13405F
:103510000B60304B1B682F4A43F4833343F049035D
:103520001360284B1B68274A43F08063136000BF79
:10353000244B1B6803F00063002BF9D0214B1B6860
:10354000204A43F08073136000BF1E4B1B6803F0DA
:103550000073002BF9D01D4B1B681C4A43F48033C9
:10356000136000BF1D4B1B6803F48033002BF9D0A0
:10357000164B1B68154A43F40033136000BF174B0A
:103580001B6803F40033002BF9D0114B1B687B60E0
:103590007B6823F003037B607B6843F002037B605E
:1035A0000B4A7B68136000BF094B1B6803F00803DC
:1035B000002BF9D000BF00BF1437BD465DF8047B77
:1035C000704700BF001002401C1002400070004015
:1035D000041002402C10024000F0FEBF04700040B6
:1035E0000C488546002103E00B4B5B5843500431E7
:1035F0000A480B4B42189A42F6D30A4A02E00023CB
:1036000042F8043B084B9A42F9D3FFF773FEFEF7EA
:10361000EDFD704700400020AC3A0008000000209B
:1036200014000020140000209C080020FEE780B455
:1036300083B000AF786039607B685B8B9AB27B683F
:103640001B8B9BB29A4201D1212318E07B685B69F6
:103650007A68528B92B213441B78DAB23B681A70C4
:103660007B685B8B9BB201337A68528C93FBF2F1DF
:1036700001FB02F29B1A9AB27B685A830023184618
:103680000C37BD465DF8047B704780B586B000AF4F
:10369000F860B9607A603B60BB687B61FB68002BB7
:1036A00005D0BB68002B02D03B6A002B01D102235E
:1036B00058E03B6A1B68002B07D03B6A5B68002B15
:1036C00003D03B6A9B68002B01D102234AE0FB68D0
:1036D00000221A70FB6801225A70FB6800229A705F
:1036E000FB683A6A5A62FB687A695A60FB68002292
:1036F0001A817A697B6813447B61FB687A69DA60B6
:10370000FB6800221A827A697B6813447B617B68BC
:103710009AB2FB685A82FB687A695A61FB68002298
:103720001A83FB6800225A837A693B6813447B61E1
:10373000FB687A69DA61FB6800221A843B689AB2F6
:10374000FB685A84FB685B6A5B68FA68D069FA6850
:10375000528C114698470346002B02D0FB68032287
:103760001A70002318461837BD4680BD80B582B058
:1037700000AF78600B467B807B687A881A8425E0EE
:103780007B68DB697A887968098C89B2521A1A4495
:103790007B685B697968098B89B20B441278D2B275
:1037A0001A707B681B8B9BB201337A68528C93FB37
:1037B000F2F101FB02F29B1A9AB27B681A837B68D2
:1037C0001B8C9BB2013B9AB27B681A847B681B8C72
:1037D0009BB2002BD4D17B685B6A5B687A68D06946
:1037E0007A68528C114698470346002B02D17B68B9
:1037F00003221A7000BF0837BD4680BD80B483B075
:1038000000AF78607B685B6A1B69002B02D07B6825
:1038100001221A7000BF0C37BD465DF8047B70476B
:1038200080B584B000AF78607B685B68FB607B68C4
:103830000833BB607B685B7803F00103002B06D084
:103840007B685B68FB607B680833BB600BE07B6870
:103850005B7803F00203002B05D07B68DB68FB601C
:103860007B681033BB607B685B6ADB68002B5AD0D7
:103870007B685B6A1B69002B55D0BB681B88002BDB
:1038800016D17B685B6A9B6898470346002B0FD173
:103890007B689B785A1CD1B27A689170142B0AD934
:1038A0007B685B6A1B6998477B6800229A7002E01C
:1038B0007B6800229A707B681B78032B32D801A2A8
:1038C00052F823F0D5380008FB38000825390008E5
:1038D0000B390008BB681B88002B48D07B685B6AEB
:1038E0009B6898470346002B41D17B685B6ADB6885
:1038F00098477B6802221A7039E07B685B6A1B6913
:1039000098477B6800221A7032E07B685B6A5B68CC
:103910007A68D0697A68528C114698477B68002291
:103920001A7025E000BFBB681B88002B20D07B6885
:103930005B6A9B6898470346002B19D17B685B6ADA
:103940001B68BA6812881146F86898470346002B2E
:103950000ED17B685B7883F00303DAB27B685A7020
:10396000BB6800221A807B6800221A7000E000BF4A
:103970001037BD4680BD00BF80B489B000AFF8608D
:10398000B9607A60FB685B68FB61FB680833BB6108
:10399000FB685B7803F00103002B06D0FB685B68D3
:1039A000FB61FB680833BB610BE0FB685B7803F0ED
:1039B0000203002B05D0FB68DB68FB61FB6810335A
:1039C000BB61FB685B8A1A46BB691B8819467B682A
:1039D0000B449A4201D220231EE000237B610EE0BB
:1039E000BA687B691A44BB691B8819467B690B441A
:1039F000F9690B4412781A707B6901337B617A692B
:103A00007B689A42ECD3BB691A887B689BB21344EB
:103A10009AB2BB691A80002318462437BD465DF868
:103A2000047B7047F8B500BFF8BC08BC9E467047E1
:0C3A3000F8B500BFF8BC08BC9E4670470B
:103A3C000000000000000000010203040607080952
:103A4C000000000001020304FEEF0004FA05080068
:103A5C000001000000000000F3000000FEEF010474
:103A6C00FA0508000001000000000000F200000050
:103A7C00FEEF4104FA050800000100000000000000
:103A8C00B2000000FEEF4180FA00080000010006C1
:083A9C000000000035000000ED
:043AA400D121000824
:043AA800AD21000844
:103AAC008D230008C5230008F12300081124000809
:043ABC0029240008B1
:04000005080035E1D9
:00000001FF
