:020000040800F2
:1000000000400020D10E00086F0C00081D0F0008F2
:10001000710C0008730C0008750C0008000000004B
:10002000000000000000000000000000770C000845
:100030007F0C000800000000810C00081D0F000864
:100040001D0F00081D0F00081D0F00081D0F0008E0
:100050001D0F00081D0F00081D0F00081D0F0008D0
:100060001D0F00081D0F00081D0F00081D0F0008C0
:100070001D0F00081D0F00081D0F00081D0F0008B0
:100080001D0F00081D0F00081D0F00081D0F0008A0
:100090001D0F00081D0F00081D0F00081D0F000890
:1000A0001D0F00081D0F00081D0F00081D0F000880
:1000B0001D0F00081D0F00081D0F00081D0F000870
:1000C0001D0F00081D0F00081D0F00081D0F000860
:1000D0001D0F0008750400081D0F000885040008A6
:1000E0001D0F00081D0F00081D0F00081D0F000840
:1000F0001D0F00081D0F00081D0F00080000000064
:100100001D0F0008000000001D0F00081D0F000853
:100110001D0F00081D0F00081D0F00081D0F00080F
:100120001D0F00081D0F00081D0F00081D0F0008FF
:100130001D0F00081D0F00081D0F00081D0F0008EF
:100140001D0F00081D0F00081D0F00081D0F0008DF
:1001500010B5054C237833B9044B13B10448AFF301
:1001600000800123237010BD00000020000000006B
:100170009817000808B5034B1BB103490348AFF3B8
:10018000008008BD0000000004000020981700084F
:1001900008B500F005F800F01DF8002008BD0000CB
:1001A00008B500F045F8094B1A68094B1340B3F144
:1001B000005F01D0002008BD82F30888002383F38C
:1001C0001488024B5B689847F4E700BF00200008E2
:1001D0000000FE2F08B500F04DF801F047F9114E70
:1001E0000124114D10E01021284600F0EAFAB0FA7F
:1001F00080F252091021284600F0DEFA0B4B002253
:100200001A80204600F0B2F8304601F03BFA204652
:1002100001F036F9054A1388591C1180642BE2D885
:10022000EFE700BF20000020001001401C0000206C
:1002300008B5012383F310884FF0E02300221A61F0
:100240005A619A614FF0FF31930003F1604303F567
:100250006143C3F88010C3F880110132082AF3D13A
:1002600000214FF0006000F009FB002383F31088A9
:1002700008BD000010B5FFF7DBFF00F05DF840F2AD
:10028000026000F012FB40F2036000F00EFB40F24F
:10029000046000F00AFB264C4FF48063032218210F
:1002A000204600F039FA4FF400630322042120466F
:1002B00000F032FA022303221021204600F02CFA2B
:1002C0001023032219461B4800F026FA40F2127050
:1002D00000F0EBFAA4F54444204600F0C1FB4FF4D3
:1002E0001641204600F002FC0021204600F044FCAC
:1002F0000021204600F048FC0021204600F034FC9C
:100300000421204600F057FC0821204600F049FC5B
:1003100040F20531204600F070FC204600F03CFC25
:1003200000221146272000F053FA62B610BD00BF2C
:10033000000C01400010014008B56FF0040000F00F
:10034000A9FA064B064A1A60D3ED007A9FED057AAA
:1003500067EE877A044BC3ED007A08BD4C0000209D
:100360000000104100007A444800002007EE900A87
:100370000F4B93ED007AF8EE677A67EE877AFCEE22
:10038000E77A4FF0E023C3ED057A00229A6101225B
:100390001A611A46136903F00113012BFAD04FF0CA
:1003A000E0231A6922F001021A6100229A61704763
:1003B0004800002038B50446032100F00EFC20B1AF
:1003C0000321204600F011FC38BD2149204600F0F1
:1003D0002DFC58B11F4D29881F4801F022F9002338
:1003E0002B601B49204600F03AFCEDE71B492046F4
:1003F00000F01CFC50B1204600F0EBFB184B1968D4
:10040000144A13685C1C1460C854DDE71549204683
:1004100000F00CFC0028D7D0134B1A68134D2B6842
:10042000591C2960D15C204600F0CFFB2A68104B94
:100430001B689A42C8D340F20731204600F0E9FB1E
:1004400000232B600A4A1360034801F015F9BBE74B
:10045000040304005C0000202000002005030500C8
:10046000600000200703070058000020540000200F
:100470005000002008B50248FFF79CFF08BD00BFF0
:100480000038014008B50248FFF794FF08BD00BFDF
:10049000004800400E4B1B6913F0800F05D00C4B39
:1004A0000C4A5A6002F188325A600B4BB3F8E030C4
:1004B000B3F5007F0AD9064B1B6D13F0800F05D0F2
:1004C000034B044A5A6402F188325A64704700BFF1
:1004D000002002402301674500F7FF1F074A136908
:1004E00043F080031361064BB3F8E030B3F5007FAF
:1004F00003D9136D43F08003136570470020024059
:1005000000F7FF1F830903F1804303F508331968DF
:1005100000F01F00012282400A431A607047000069
:10052000094BDB6813F0010F0AD1074BDB6813F0AE
:10053000100F07D1044BD868C0F38000400070470B
:10054000012070470320704700200240094BDB6CFC
:1005500013F0010F0AD1074BDB6C13F0100F07D11A
:10056000044BD86CC0F380004000704701207047F6
:10057000032070470020024010B50446FFF7D0FF6B
:10058000013C012802D1002CF8D1042010BD10B587
:100590000446FFF7DBFF013C012802D1002CF8D113
:1005A000042010BD38B504462D4BB3F8E030B3F548
:1005B000007F3BD92B4B984218D22B48FFF7DCFF2A
:1005C00000B138BD294D2B6943F002032B616C61EA
:1005D0002B6943F040032B6100BF00BF2248FFF7A7
:1005E000CBFF2B6923F002032B61EAE71E48FFF7DC
:1005F000CEFF0028E5D11D4B1A6D42F002021A65AC
:100600005C65DB6913F0020F1CBF184B5C61174C73
:10061000236D43F04003236500BF00BF1248FFF77E
:10062000B6FF236D23F002032365CAE70E48FFF7E8
:10063000A3FF0028C5D10D4D2B6943F002032B61A8
:100640006C612B6943F040032B6100BF00BF06487B
:10065000FFF792FF2B6923F002032B61B1E700BF84
:1006600000F7FF1FFFFF07080000FF0F00200240F8
:1006700070B505460C46244BB3F8E030B3F5007F67
:100680002DD9224B984215D22148FFF775FF03461A
:1006900008B1184670BD1F4E336943F00103336142
:1006A0002C601B48FFF768FF0346326922F0010205
:1006B0003261EEE71648FFF76AFF03460028E8D1EB
:1006C000144E336D43F0010333652C601048FFF77F
:1006D0005EFF0346326D22F001023265D9E70C4815
:1006E000FFF74AFF03460028D3D10A4E336943F08F
:1006F000010333612C600648FFF73EFF0346326971
:1007000022F001023261C4E700F7FF1FFFFF070874
:100710000000FF0F002002402DE9F04101F00F0E14
:1007200011F0100F03D0042A05D04EEA020E002269
:1007300001260F270AE04EF0030EC26B1A43C26374
:10074000F5E7446105600132082A14D006FA02F484
:100750001C40F8D005684FEA820C07FA0CF825EA2D
:1007600008050EFA0CFC4CEA05052829E9D04829B1
:1007700008BF0461E6E7002501274FF00F0805E0F8
:100780004461466001320435102A13D007FA02FC96
:100790001CEA0304F6D0466808FA05FC26EA0C0CAD
:1007A0000EFA05F646EA0C062829E9D0482908BFC2
:1007B0000461E6E7BDE8F0810AB10161704741617B
:1007C000704783680B4214BF01200020704700006F
:1007D0009446274BDB6803F4E063B3F5E06F24D065
:1007E000234BDB6803F4E063B3F5C06F37D0204BD5
:1007F000DB6803F4E063B3F5A06F33D01C4BDB6818
:1008000003F4E063B3F5806F2FD0194BDB6803F47A
:10081000E063B3F5407F02D10023042207E0144BCC
:10082000144ADA6002231A4601E004230022C2F1CE
:1008300004029140C3F104030F22DA4002EA0C02E1
:100840000A431201D2B20C490B1883F8002342115B
:1008500000F01F000123834041F82230704703233A
:100860000122E4E702231A46E1E701230322DEE73F
:1008700000ED00E00005FA0500E100E021F0604134
:1008800021F07F010143024B9960BFF34F8F704706
:1008900000ED00E004284FF0E02213690CBF43F0A4
:1008A000040323F0040313617047830903F18043B9
:1008B00003F50433196800F01F00012282400A4347
:1008C0001A607047830903F1804303F50433196804
:1008D00000F01F00012282400A431A60704783091A
:1008E00003F1804303F504331A6800F01F0001216F
:1008F000814022EA01021A607047000010B588B0FA
:100900008446514C94E80F000DF1200E0EE90F00C3
:1009100002AB103494E8030083E803006B4683E8DD
:1009200003004A4B5B68C3F38103012B4BD0022BBE
:1009300069D1464B5B6813F4803F3AD0434BDB6A86
:1009400013F0804F4248434B08BF18463F4BDB6AC9
:1009500013F4803F0FD03D4AD36AC3F3031301332E
:10096000D26AC2F30322911C0F2A08BF1421B0FBE4
:10097000F3F301FB03F0354BDB6A03F00F030133A4
:10098000B0FBF3F0314A5368C3F38343526812F06B
:10099000005F48D02D4A526812F0804F0ED043F0CD
:1009A0003003A3F10F022F2A88BFC0EB80100BD8B1
:1009B00006E02948E6E702FB00F005E043F01003FB
:1009C00003FB000000E02348204A5368C3F30313ED
:1009D00020336B4413F8103C20FA03F15368C3F33F
:1009E000022320336B4413F8184C5368C3F3C2231B
:1009F00020336B4413F8203CBCF1030F05D8DFE82B
:100A00000CF00706090C1548DEE7002000E0084658
:100A100008B010BD21FA04F0FAE721FA03F0F7E775
:100A200043F02003CCE7094A526812F0804FF7D117
:100A30000E2BC5D89A1C0D2BBDD100EB40034008EE
:100A400000EB4300C0E700BFB017000800100240F1
:100A5000006CDC0240787D0100093D0000127A0044
:100A600008B5204B98422AD00FD91F4B98422FD05F
:100A700003F56843984207D140F20E30FFF722FF9A
:100A800040F20E30FFF72BFF08BDA3F5006398423C
:100A90000CD003F580639842F6D140F21240FFF784
:100AA00011FF40F21240FFF71AFFEDE740F211404C
:100AB000FFF708FF40F21140FFF711FFE4E740F2B3
:100AC0001340FFF7FFFE40F21340FFF708FFDBE79C
:100AD00040F21440FFF7F6FE40F21440FFF7FFFE2D
:100AE000D2E700BF004C00400050004038B504463B
:100AF0000D461B4B984226D011D91A4B984227D04D
:100B000003F56843984228D10320FFF7F7FE034618
:100B100003EB5503B3FBF5F39BB2A36038BDA3F51C
:100B2000006398420AD003F58063984204D1022002
:100B3000FFF7E4FE0346EBE70023E9E70220FFF7B7
:100B4000DDFE0346E4E70220FFF7D8FE0346DFE7B9
:100B50000220FFF7D3FE0346DAE70023D8E700BF01
:100B6000004C004000500040C36823F4C063C360E1
:100B7000C3680B43C3607047C36823F48053C360EA
:100B8000C3680B43C3607047036923F44053036198
:100B900003690B4303617047C36843F40053C360A8
:100BA0007047C36823F00803C360C36801F00801FD
:100BB0001943C1607047C36823F00403C360C3686E
:100BC00001F004011943C1607047C1F3080141609D
:100BD00070474068C0F3080070478B09185801F04F
:100BE0001F01C84000F0010070478A0901F01F0191
:100BF00001238B40DB431350704710B48A0914580B
:100C000001F01F0101238B40234313505DF8044B77
:100C100070474FEA911C5CF8003001F01F0101227F
:100C20008A4023EA02034CF80030704710B4C1F345
:100C300089131C588B0D1A58C1F3044001238340BB
:100C400013420AD001F01F0101238B40234214BF3D
:100C5000012000205DF8044B70470020FAE78A0D60
:100C6000C1F3044101238B40DB43135070477047AD
:100C7000FEE7FEE7FEE708B5FFF7ACFA08BD7047F0
:100C80007047000084B08F4AD2F8883043F4700374
:100C9000C2F888308C4A136843F00103136013686C
:100CA00013F0020FFBD0884B5B6803F00C03082B9A
:100CB00035D0854A536823F0030353600023029321
:100CC000029BB3F5FA6F06D2029B01330293029B9B
:100CD000B3F5FA6FF8D37C4B1A6822F0A85222F4CD
:100CE00010221A604FF47F029A601A6822F4802260
:100CF0001A6000225A60DA621A6842F480321A607E
:100D00004FF6FF7370490A6812F4003F01D1013BAE
:100D1000F9D16D4B1B6813F4003F6DD1FEE7002342
:100D20000093009B4F2B05D8009B01330093009B41
:100D30004F2BF9D9644A53680193019B23F0F003C8
:100D40000193019B43F080030193019B53600023B7
:100D50000093009B4F2B05D8009B01330093009B11
:100D60004F2BF9D9584A53680193019B23F0F003A4
:100D70000193019B43F090030193019B5360002377
:100D80000093009B4F2B05D8009B01330093009BE1
:100D90004F2BF9D94C4A53680193019B23F0F00380
:100DA0000193019B43F0A0030193019B5360002337
:100DB0000093009B4F2B05D8009B01330093009BB1
:100DC0004F2BF9D9404A53680193019B23F0F0035C
:100DD0000193019B43F0B0030193019B53600023F7
:100DE0000093009B4F2B3FF664AF009B01330093B1
:100DF000009B4F2BF9D95CE7334BDA6942F0805204
:100E0000DA6132490A6842F440420A605A685A601C
:100E10005A685A605A6842F480625A605A6822F0EE
:100E2000C04222F470125A605A6842F0005242F4F2
:100E300054125A60DA6A22F0804222F4873222F495
:100E4000FF7222F00102DA62DA6A42F4833242F07F
:100E50004902DA621A6842F080621A601A46136820
:100E600013F0006FFBD0184A136843F080731360CF
:100E7000136813F0007FFBD0144A136843F48033E7
:100E80001360536813F4803FFBD0104A136843F497
:100E900000331360536813F4003FFBD00A4A5368D1
:100EA0000393039B23F003030393039B43F0020389
:100EB0000393039B5360536813F0080FFBD004B0F7
:100EC000704700BF00ED00E00010024000700040DD
:100ED0000C488546002103E00B4B5B58435004311E
:100EE0000A480B4B42189A42F6D30A4A02E0002302
:100EF00042F8043B084B9A42F9D3FFF7C3FEFFF7D1
:100F000047F9704700400020D41700080000002077
:100F10000000002000000020CC020020FEE70000BE
:100F2000034B00221A705A8064229A80704700BFD7
:100F30007C02002008B502460549064800F030F959
:100F400010B100F009F808BD014800F071F8F8E7A9
:100F5000680000207C02002038B5074C012503E022
:100F60002946204600F028FB204600F03FFB0028E1
:100F7000F6D0002038BD00BF8202002010B5044624
:100F8000C37803F00703052B4AD8DFE803F04703D3
:100F90003F4143450222637862F387036370E2783E
:100FA000012363F30202E270227863F305022270E8
:100FB000228863F3891222800823A380194B1B78AF
:100FC0006372226802F1080303EB126303EB12431E
:100FD00003EB1223DBB284F81232621D04F10D0020
:100FE00012F8011F0B44DBB29042F9D184F812329F
:100FF0000D4A08211180DB43E37302210B4800F006
:10100000DBFA0F21204600F0D7FA10BD0422C2E718
:101010000822C0E71022BEE72022BCE70122BAE77F
:101020000120F2E78702002084020020C817000890
:10103000534B06221A70037813F03E0F40F09E8047
:1010400010B50446038803F460730BB1002094E0EC
:101050008378F43B042B00F28D80DFE803F0034734
:101060008B288700D0F80630464A1360D0F80A1063
:10107000454A1160454A934207D101F1006303F5E7
:10108000005302F56042934208D900233D4A1360A1
:101090003D4A13603A4B62221A706BE03B4800F005
:1010A0001BFA002866D0364B60221A7062E0D0F836
:1010B0000630374A1360828936490A6033498B42C9
:1010C0000BD3134401F560418B4206D8B2F5007F83
:1010D00050DD2B4B62221A704CE000232C4A136027
:1010E0002C4A1360264B62221A7043E0284B186882
:1010F000244B1B68984208D0A21DA18800F016FA64
:10110000D8B11F4B60221A7034E0621D224B03F1EC
:10111000200C12F8011F03F8011B6345F9D1A188C7
:1011200004F10A020439043000F000FAD0B9184B77
:101130001868144B1B689842DED1124B1868144B88
:101140001A68144B1B681A440F4B1B6803449A42DD
:1011500010D1114A202100F0E9F958B1084B602262
:101160001A7007E0064B60221A7003E002210B4858
:1011700000F0ACF92046FFF701FF10BD00207047DA
:1011800087020020B4020020B002002000200008E6
:10119000AC020020A802002088020020BC0200202F
:1011A0002DE9F04143881A4492B2428083889342E9
:1011B00006D305460C46AA4E00274FF0010820E052
:1011C000FFF7AEFE512248E153B1102B40F04281AF
:1011D0003378EF2B0AD0FE2B13D000232B7010E0B6
:1011E0003378FE2B0DD110232B700AE020232B70B7
:1011F00007E0A4F810723378236084F812322123B8
:101200002B70304600F0E4F90246002840F02481BB
:101210006F802B78602B00F21D811F2BD4D9203BCF
:10122000402B00F2178101A151F823F0F3110008BF
:10123000311300084B13000865130008551400080B
:1012400055140008551400085514000855140008DA
:1012500055140008551400085514000855140008CA
:101260005514000855140008551400087F13000891
:10127000931300085514000855140008551400086D
:10128000551400085514000855140008551400089A
:10129000551400085514000855140008551400088A
:1012A000551400085514000855140008D3130008FD
:1012B000551400085514000855140008551400086A
:1012C000551400085514000855140008551400085A
:1012D000551400085514000855140008551400084A
:1012E000551400085514000855140008FD13000893
:1012F000551400085514000855140008551400082A
:101300005514000855140008551400085514000819
:101310005514000855140008551400085514000809
:101320005514000855140008551400083B14000813
:101330003378226842EA0322226094F8122213448E
:1013400084F8123222232B705BE73378226842EA5A
:101350000342226094F81222134484F812322323A9
:101360002B704EE73378226842EA0362226094F8D9
:101370001222134484F8123230232B7041E7337861
:10138000A38094F81222134484F8123231232B7074
:1013900037E73378A28802EB0322A28094F8122266
:1013A000134484F81232637803F0FC03082B02D153
:1013B00040232B7025E702212A4800F015F9062169
:1013C000204600F011F9A3880133A38050232B702D
:1013D00017E7B4F810323278E1188A7101339BB202
:1013E000A4F8103294F812120A4484F81222A28847
:1013F0009A423FF606AF60232B7002E74146304623
:1014000000F0F2F8B4F8103201339BB2A4F81032B5
:1014100094F8122231780A4484F81222A2889A425F
:101420003FF6EFAEA378F82B02D000232B70E8E64E
:1014300002210D4800F04AF8F7E794F81232DB4336
:1014400084F812322F7094F81212337899427FF494
:10145000D8AE02E02F70D4E650221046BDE8F081ED
:1014600086020020C8170008BC02002008B5FFF75C
:1014700057FD024B00221A6008BD00BFBC020020CD
:1014800010B50446FFF756FD2146024800F004F867
:1014900010BD00BFBC02002008B5037813F0020F96
:1014A00000D108BD074B1B78642B03D80133054AD4
:1014B0001370F6E700F068F8034A136823F002039C
:1014C0001360EEE7B8020020BC02002003680B4363
:1014D0000360002070470000F8B5C0F30907F7B9B2
:1014E00005468B0AC1F3892101B101330E4C2360FB
:1014F000FEF7D0FF236873B140F20736013B23604B
:1015000005EB8320FFF74EF858B93046FEF7FAFF97
:101510002368002BF2D1FEF7E1FF3846F8BD04271F
:10152000FBE76327F9E700BFC80200202DE9F0417F
:1015300007460E46124B1A60FEF7ACFF114B002215
:101540001A60AEB110460E4C40F207381D462368B3
:1015500019683844FFF78CF878B94046FEF7D2FF97
:10156000236804332360286804302860B042EED337
:10157000FEF7B4FF0020BDE8F0816120FBE700BF6B
:10158000C4020020C002002008B5084B013BFDD179
:10159000FEF74EFEBFF34F8F0549CA6802F4E062C2
:1015A000044B1343CB60BFF34F8FFEE7FFFF0C00EC
:1015B00000ED00E00400FA0508B50A4601460348BC
:1015C00000F0BBF8003818BF012008BD2000002043
:1015D00008B50146034800F00BF8003818BF012099
:1015E00008BD00BF20000020002070470120704788
:1015F000428B92B2038B9BB29A4210D0438B9BB228
:101600004269D35C0B70438B9BB20133428C93FBDA
:10161000F2F102FB11339BB243830020704721207B
:10162000704738B504460184038C9BB2DBB1238C30
:101630009BB2CB1A228B92B26069E569EB5CDBB29C
:101640008354238B9BB20133628C93FBF2F002FB39
:1016500010339BB22383238C013B9BB22384238CC6
:101660009BB2002BE3D1636A5B68618CE0699847A9
:1016700008B90323237038BD436A1B690BB10123EA
:101680000370704770B50446466800F1080543785A
:1016900013F0010F05D113F0020F1CBFC66800F153
:1016A0001005636ADA68002A30D0196900292DD044
:1016B0002278012A0DD0032A0FD0AAB92A885AB15C
:1016C0009B68984740B9636ADB6898470223237098
:1016D00002E088470023237070BD5B68618CE0697D
:1016E000984700232370F7E72A886AB99B689847D0
:1016F00050B9A3785A1CA270142B07D9636A1B69CE
:1017000098470023A37001E00023A3702B88002BCF
:10171000E2D0636A9B6898470028DDD1636A1B6842
:101720002988304698470028D6D1637883F0030390
:10173000637000232B802370CEE730B5456800F13D
:10174000080E437813F0010F1BD00389408A13441D
:1017500098421FD372B1481E8C18013CC1F101019F
:10176000BEF800300B44034410F801CF05F803C065
:10177000A042F5D1BEF800301A44AEF80020002097
:1017800030BD13F0020F0FBF0389C56800F1100EC2
:10179000038ADBE72020F3E7F8B500BFF8BC08BCFC
:1017A0009E467047F8B500BFF8BC08BC9E4670471F
:1017B0000000000000000000010203040607080901
:0C17C0000000000001020304FEEF000026
:0417CC00750100089B
:0417D00051010008BB
:0400000508000ED110
:00000001FF
